:020000040000fa
:080000000001040000000000f3
:020000040000fa
:0400080004020000ee
:020000040000fa
:04000c0004020000ea
:020000040000fa
:0400100004020000e6
:020000040000fa
:0400140004020000e2
:020000040000fa
:0400180004020000de
:020000040000fa
:04001c0004020000da
:020000040000fa
:0400200004020000d6
:020000040000fa
:0400240004020000d2
:020000040000fa
:0400280004020000ce
:020000040000fa
:04002c0004020000ca
:020000040000fa
:0400300004020000c6
:020000040000fa
:0400340004020000c2
:020000040000fa
:0400380004020000be
:020000040000fa
:04003c0004020000ba
:020000040000fa
:0400400004020000b6
:020000040000fa
:0400440004020000b2
:020000040000fa
:0400480004020000ae
:020000040000fa
:04004c0004020000aa
:020000040000fa
:0400500004020000a6
:020000040000fa
:0400540004020000a2
:020000040000fa
:04005800040200009e
:020000040000fa
:04005c00040200009a
:020000040000fa
:040060000402000096
:020000040000fa
:040064000402000092
:020000040000fa
:04006800040200008e
:020000040000fa
:04006c00040200008a
:020000040000fa
:040070000402000086
:020000040000fa
:040074000402000082
:020000040000fa
:04007800040200007e
:020000040000fa
:04007c00040200007a
:020000040000fa
:040080000402000076
:020000040000fa
:040084000402000072
:020000040000fa
:04008800040200006e
:020000040000fa
:04008c00040200006a
:020000040000fa
:040090000402000066
:020000040000fa
:040094000402000062
:020000040000fa
:04009800040200005e
:020000040000fa
:04009c00040200005a
:020000040000fa
:0400a0000402000056
:020000040000fa
:0400a4000402000052
:020000040000fa
:0400a800040200004e
:020000040000fa
:0400ac00040200004a
:020000040000fa
:0400b0000402000046
:020000040000fa
:0400b4000402000042
:020000040000fa
:0400b800040200003e
:020000040000fa
:0400bc00040200003a
:020000040000fa
:0400c0000402000036
:020000040000fa
:0400c4000402000032
:020000040000fa
:0400c800040200002e
:020000040000fa
:0400cc00040200002a
:020000040000fa
:0400d0000402000026
:020000040000fa
:0400d4000402000022
:020000040000fa
:0400d800040200001e
:020000040000fa
:0400dc00040200001a
:020000040000fa
:0400e0000402000016
:020000040000fa
:0400e4000402000012
:020000040000fa
:0400e800040200000e
:020000040000fa
:0400ec00040200000a
:020000040000fa
:0400f0000402000006
:020000040000fa
:0400f4000402000002
:020000040000fa
:0400f80004020000fe
:020000040000fa
:0400fc0004020000fa
:020000040000fa
:0401000004020000f5
:020000040000fa
:0401040004020000f1
:020000040000fa
:0401080004020000ed
:020000040000fa
:04010c0004020000e9
:020000040000fa
:0401100004020000e5
:020000040000fa
:0401140004020000e1
:020000040000fa
:0401180004020000dd
:020000040000fa
:04011c0004020000d9
:020000040000fa
:0401200004020000d5
:020000040000fa
:0401240004020000d1
:020000040000fa
:0401280004020000cd
:020000040000fa
:04012c0004020000c9
:020000040000fa
:0401300004020000c5
:020000040000fa
:0401340004020000c1
:020000040000fa
:0401380004020000bd
:020000040000fa
:04013c0004020000b9
:020000040000fa
:0401400004020000b5
:020000040000fa
:0401440004020000b1
:020000040000fa
:0401480004020000ad
:020000040000fa
:04014c0004020000a9
:020000040000fa
:0401500004020000a5
:020000040000fa
:0401540004020000a1
:020000040000fa
:04015800040200009d
:020000040000fa
:04015c000402000099
:020000040000fa
:040160000402000095
:020000040000fa
:040164000402000091
:020000040000fa
:04016800040200008d
:020000040000fa
:04016c000402000089
:020000040000fa
:040170000402000085
:020000040000fa
:040174000402000081
:020000040000fa
:04017800040200007d
:020000040000fa
:04017c000402000079
:020000040000fa
:040180000402000075
:020000040000fa
:040184000402000071
:020000040000fa
:04018800040200006d
:020000040000fa
:04018c000402000069
:020000040000fa
:040190000402000065
:020000040000fa
:040194000402000061
:020000040000fa
:04019800040200005d
:020000040000fa
:04019c000402000059
:020000040000fa
:0401a0000402000055
:020000040000fa
:0401a4000402000051
:020000040000fa
:0401a800040200004d
:020000040000fa
:0401ac000402000049
:020000040000fa
:0401b0000402000045
:020000040000fa
:0401b4000402000041
:020000040000fa
:0401b800040200003d
:020000040000fa
:0401bc000402000039
:020000040000fa
:0401c0000402000035
:020000040000fa
:0401c4000402000031
:020000040000fa
:0401c800040200002d
:020000040000fa
:0401cc000402000029
:020000040000fa
:0401d0000402000025
:020000040000fa
:0401d4000402000021
:020000040000fa
:0401d800040200001d
:020000040000fa
:0401dc000402000019
:020000040000fa
:0401e0000402000015
:020000040000fa
:0401e4000402000011
:020000040000fa
:0401e800040200000d
:020000040000fa
:0401ec000402000009
:020000040000fa
:0401f0000402000005
:020000040000fa
:0401f4000402000001
:020000040000fa
:0401f80004020000fd
:020000040000fa
:0401fc0004020000f9
:020000040000fa
:100200000f8020000e7f24000e01880000000000f7
:10021000000020000000e000020032000001200089
:100220002002880014000700790007000000e000a9
:1002300003003a0000002000010020000200370007
:100240000000200001002000810f7000010032003a
:1002500014000700000020000000e000020032004f
:100260000000020000000000180902000000000069
:100270000040da000000fe004440a90020002000f9
:100280000000e00003003200100020009001880010
:100290004440a800000006008a1f78008b1f7800e9
:1002a00000000600a1028800800478000000eb0036
:1002b0001f003700e284440054a0b4009905ba003e
:1002c000e284440054a0b4009906ba00e2844400d9
:1002d00054a0b4000006eb00476fde00fd07b2003b
:1002e000ae018800636ce10003003a00eaff0700fa
:1002f0000000eb000e003700606ce10008003a00df
:10030000004deb000a05e800020039003420ec0043
:100310000af0a0008b05e900f9ff3e000400370059
:100320006168e100010032000086eb000b0007006d
:1003300019c7ba001905ba000e04e00003003a001c
:100340000a00e000dbff3a0000000600fe07b200f2
:10035000ae0288008a047800f5ff37000cd0a300b5
:10036000e20f4d001c00390089027800354dba00bb
:100370000a05e800020039003420ec000af0a00071
:100380008b05e9000f003200254dba000a05e80090
:10039000020039003420ec000af0a0008b05e900cf
:1003a000080032000c00e0000600320015cdba0053
:1003b0000a05e800020039003420ec000af0a00031
:1003c0008b05e9008984e80054a0b4000b00e0002c
:1003d000e2ff3a00000006009902ba00055d7800cd
:1003e0008b05e900f7ff3200c82ade00055d7800c2
:1003f0008b05e900f3ff32000c00e000f1ff320052
:1004000019ddba00eeff37000040da000000fe0000
:10041000000005000001be001b0007000470a700db
:1004200003f0a10003f8a30013003a006509b1002e
:1004300010003200090035006928e1000200350093
:1004400001002800000005000000400081804800f5
:100450008502e900fcff3a0000000600f88f420028
:10046000050035008100d1000080d3008502e8003e
:10047000fcff3a00000006008000eb0000000500d1
:100480006011b80049003700c70ade00f107b2006a
:10049000f50fb20008003200e1cf42000200320046
:1004a0000170a00024000500810f700001003200df
:1004b0000408050044000500810f700002003a00a6
:1004c000140005008502e9000000400081c04800da
:1004d000fcff3b000170a00024000500889fbe00c7
:1004e0008a9fbe008c1f7800850007008c003300b7
:1004f00003866c006450e100240032006420e100b7
:10050000270032006150e100220032006120e1004a
:10051000210032008b854200eb07b1000134b800a6
:10052000003ab8000804420089844a00013ab80041
:100530000030b8008880400009014a000400330000
:100540000000400081804800020149008b05e9005d
:10055000c909dd0083017000010032001300200092
:10056000c814de004814dd004709de001200b200a6
:10057000c808de00088470003b00070001f0a100fd
:100580000cf0a70001f0a0006e0037006120e10030
:10059000700032000801be000200be00f7ff370005
:1005a0006150e100fcff3a006a003700889fbe00fe
:1005b0008a9fbe00008270000402710004827100f4
:1005c000260032000004be000200be006011b80028
:1005d0006b092000950220000182cf000a0039003b
:1005e0000541b1000082cf00070039000541b1008c
:1005f0000982cf00040039000541b1000882cf0014
:10060000010039000541b1000542520012003200dc
:100610000a003b0082817100610164008100d10009
:100620000080d3008984d3000884d3008b05e800c0
:100630000442e800f7ff3a000700370008044400ce
:1006400089844c0000004800818048008b05e90047
:100650000442e900f9ff3a00030007004f05be001d
:100660004f04be000000060081002000618055009c
:100670000b003d000b00200061fe2f000100e10097
:100680001d00340082817100610164008904d10081
:100690000884d3000000e800faff3a00710020004f
:1006a0006100640003007000020060000900320075
:1006b00061044400e0844c000988a5000500320074
:1006c0008b05e8006808e10002003a008904d100c7
:1006d0000884d300f20f20000258e10005003d001d
:1006e000c75ddd00f907b200898075000800780059
:1006f000000006000bf827008b00780000000500c2
:100700000004be0060ff07000003be000405be0039
:100710000200be005cff0700844f75000000060069
:100720000200be006450e100050036006420e100d4
:10073000020036000968a30001003a000800be006c
:100740000160a0004f0678004f05be004f04be00b8
:1007500000000600f0ff2f00f1ff2700f9ff37002f
:020000040000fa
:100760000000fa0000000000a12180000008200025
:10077000008060000000e000fbff32003824ef0042
:100780000080fa00000006000200fa00000f780066
:1007900000000000c12080000008200000806000f0
:1007a0000000e000fbff32009e007800e12088009e
:1007b00000000000c12080000008200000806000d0
:1007c0000000e000fbff3200e1208000010f780014
:1007d0000080fa00000006000200fa00000f780016
:1007e0007ba6a9001e007800e7ff07007ba6a800f3
:1007f0000080fa00000006000200fa00000f7800f6
:100800007bc6a9001e007800dfff07007bc6a8009a
:100810000080fa00000006000200fa00a12180001a
:1008200000022000008060000000e00014003a0098
:10083000c1218000010f7800000f2f009e0078007a
:10084000808f500002003a00100020000d00370099
:1008500000f02f009e007800808f500002003a00c8
:100860002000200007003700f00f20009e007800d5
:10087000808f500002003a00300020000100370055
:100880000000eb000080fa00000006000600fa00fd
:10089000100798002107980000000000e11f800069
:1008a00000082000008060000000e000fbff320034
:1008b0007a86a8000000eb00000f780001003700e6
:1008c0001e0fe8001e007800e90f5000fcff360004
:1008d0000024ef000024ef0000000000e11f800072
:1008e00000082000008060000000e000fbff3200f4
:1008f000012080002e009000010878000120800077
:100900001e009000010878007a86a9001e00900061
:1009100090007800c0ff2f00808060001e009000d3
:10092000010878000080fa00000006002200fa00aa
:10093000700f9800011798007e08900090007800d2
:100940000e109000808f5000050031007e0890004e
:10095000100078008e109000008f500004003700c7
:100960007e089000900078000e109000008f5000dc
:100970007e089000900078000e109000808f50004c
:10098000b5003100007d20009e007800808f50006f
:10099000ae0036000e1090008000eb00b8fe07009d
:1009a00002e5210063f52300ccfe070099fe070055
:1009b00000007800100798000e1090008000eb00f7
:1009c000affe0700b2e72400a3f52300c3fe070033
:1009d00090fe070000007800200798000e1090009d
:1009e0008000eb00a6fe070062ea2700e3f5230083
:1009f000bafe070087fe0700000078003007980065
:100a00000e1090008000eb009dfe070012ed2a0002
:100a100023f62300b1fe07007efe070000007800e9
:100a2000400798000e1090008000eb0094fe070035
:100a3000c2ef2d0063f62300a8fe070075fe070035
:100a400000007800500798000e1090008000eb0026
:100a50008bfe070082f22000b3f623009ffe070002
:100a60006cfe070000007800600798000e109000f0
:100a70008000eb0082fe070032f52300f3f623002e
:100a800096fe070063fe07000000780070079800dc
:100a90000e1090008000eb0079fe0700e2f72600c0
:100aa00033f723008dfe07005afe07000000780090
:100ab000000f98000e1090008000eb0070fe070001
:100ac000a2fa290073f7230084fe070051fe0700f5
:100ad00000007800100f98000e1090008000eb00ce
:100ae00067fe0700f27b2b0093f723007bfe0700d5
:100af00048fe070000007800200f98000e109000bc
:100b00008000eb005efe070052fd2c00b3f72300cf
:100b100072fe07003ffe070000007800300f9800cb
:100b20000e1090008000eb0055fe0700a27e2e0004
:100b3000d3f7230069fe070036fe070000007800a7
:100b4000400f98000e1090008000eb004cfe070054
:100b5000523f2f00e3f7230060fe07002dfe070041
:100b600000007800500f98008e109000610f9800e0
:100b70001e00900018ff0700501e20000202070010
:100b80002e00900014ff070020022000fe01070045
:100b90003e00900010ff070070022000fa010700dd
:100ba0004e0090000cff0700d0022000f601070065
:100bb0005e00900008ff070040032000f2010700dc
:100bc0006e00900004ff0700d0032000ee01070034
:100bd0007e00900000ff0700b0042000ea0107003b
:100be0000e089000fcfe070000062000e60107004a
:100bf0001e089000f8fe070070082000e2010700c0
:100c00002e089000f4fe070060062000de010700b9
:100c10003e089000f0fe070060082000da0107009f
:100c20004e089000ecfe0700200f2000d6010700c0
:100c30005e089000e8fe070080112000d201070046
:100c40006e089000e4fe0700b70037000e10900019
:100c5000e1fe0700b4003700007d20009e00780010
:100c6000808f5000ae0036000e1090008000eb0028
:100c700003fe0700820d2f0043f9230017fe070033
:100c8000e4fd070000007800100798000e109000a7
:100c90008000eb00fafd0700328c2d0023f92300c1
:100ca0000efe0700dbfd070000007800200798001b
:100cb0000e1090008000eb00f1fd0700d20a2c001e
:100cc00003f9230005fe0700d2fd070000007800ad
:100cd000300798000e1090008000eb00e8fd070040
:100ce00072892a00e3f82300fcfd0700c9fd070014
:100cf00000007800400798000e1090008000eb0084
:100d0000dffd070022082900c3f82300f3fd0700d8
:100d1000c0fd070000007800500798000e109000fa
:100d20008000eb00d6fd0700c2862700a3f8230051
:100d3000eafd0700b7fd0700000078006007980093
:100d40000e1090008000eb00cdfd0700620526002c
:100d500083f82300e1fd0700aefd070000007800e6
:100d6000700798000e1090008000eb00c4fd070093
:100d70001284240063f82300d8fd0700a5fd0700b6
:100d800000007800000f98000e1090008000eb002b
:100d9000bbfd0700b202230043f82300cffd07008c
:100da0009cfd070000007800100f98000e109000c6
:100db0008000eb00b2fd07000242220033f823005e
:100dc000c6fd070093fd070000007800200f980083
:100dd0000e1090008000eb00a9fd07006281210049
:100de00023f82300bdfd07008afd070000007800fe
:100df000300f98000e1090008000eb00a0fd07005f
:100e0000b2c0200013f82300b4fd070081fd0700e5
:100e100000007800400f98000e1090008000eb005a
:100e200097fd07005260280003f82300abfd070080
:100e300078fd070000007800500f98008e10900099
:100e4000610f98001e00900063fe0700501e2000f6
:100e50004d0107002e0090005ffe070020022000d9
:100e6000490107003e0090005bfe07007002200071
:100e7000450107004e00900057fe0700d0022000f9
:100e8000410107005e00900053fe07004003200070
:100e90003d0107006e0090004ffe0700d0032000c8
:100ea000390107007e0090004bfe0700b0042000cf
:100eb000350107000e08900047fe070000062000dd
:100ec000310107001e08900043fe07007008200053
:100ed0002d0107002e0890003ffe0700600620004d
:100ee000290107003e0890003bfe07006008200033
:100ef000250107004e08900037fe0700200f200054
:100f0000210107005e08900033fe070080112000d9
:100f10001d0107006e0890002ffe07000200370039
:100f20000e1090002cfe07000080fa000000060062
:100f30000400fa00100798003824ef007b26a80070
:100f400000000000a1218000000820000080600057
:100f50000000e000fbff3200c1218000010f78009b
:100f60001e0078004300dd00000f78009e0078002e
:100f70001e0090006dfe07007b26a9001e00900059
:100f80001e0878000080fa00000006000200fa0047
:100f90003824ef007b26a80000000000a12180007b
:100fa00000082000008060000000e000fbff32002d
:100fb000c1218000010f78001e0078004400dd0090
:100fc000000f78001e0078000bfe07007b26a900aa
:100fd0000080fa00000006000600fa0010079800e2
:100fe000210798001e00900010007800c0218800a2
:100ff0002e00900010007800c02188007b26a800f9
:1010000000000000a1218000000820000080600096
:101010000000e000fbff3200c1218000010f7800da
:10102000c1218000010f78007b26a9000080fa0012
:10103000000006000000fa000001eb006004200040
:101040007105200003102000804978008149780054
:10105000824978000221ef000621ef006821ef00ad
:101060006a21ef006c21ef000821ef0000702000e2
:10107000500888000c21ef000e21ef006626ef00db
:1010800000002600d03388006226ef00001a2000fe
:10109000b03388007426ef008826ef007226ef0038
:1010a0008626ef006826ef007c26ef006a26ef0018
:1010b0007e26ef0001088000f00b20000081600018
:1010c0006004200071052000031020008049780092
:1010d0008149780082497800c13d800000fc2f00e2
:1010e000008060005000b300c03d8800b13e800029
:1010f00000f82f00008060000030a000b03e8800a3
:10110000013f800000f82f0000806000b000b300b5
:10111000003f8800f13e8000f00f280080806000d2
:1011200000a0200001007000f03e8800f13e800029
:1011300000f82f00008060007001b300f03e8800ce
:10114000413e800000fc2f00008060000030a000c5
:10115000403e8800413e8000f00f2c0080806000ff
:101160000070200001007000403e880000088000f0
:10117000000178000260a0006004200071052000da
:101180000310200080497800814978008249780066
:101190000080fa00000006000000fa00f623ef00cd
:1011a000f823ef00fc23ef0020002000202088001f
:1011b0000824ef000a24ef000c24ef000e24ef00b7
:1011c00010422100a01f8800f5e3a8001053200062
:1011d000802088001224ef001424ef001824ef0070
:1011e00020002000002188002424ef002624ef00a6
:1011f0002824ef002a24ef0011e4a8002e24ef0099
:101200003024ef003424ef003c24ef004024ef00b2
:101210004224ef004424ef004624ef001040200059
:10122000602188002de4a8000080fa00000006007c
:101230000c00fa007fff07007ac6a800d6ff07005f
:101240002d00070000002200000f780000002100a0
:10125000100798001e0078005ffd07001e00900038
:1012600065fd0700007d20002b000700007d2000a9
:10127000290007003afd07007b26a8004006200051
:10128000250007007b26a900e8004700660047000c
:101290007efd070060fd0700200798002e009000eb
:1012a000e10f500005003a00e800470066004700e3
:1012b00049ff07002afd07000c0037002e009000b0
:1012c000e20f500004003a006a00470018ff0700d0
:1012d00023fd0700050037002e009000e30f5000ab
:1012e00002003a0029ff07001dfd0700200320002f
:1012f00009000700e4ff37000000fa00202020006a
:10130000000d88009621ef000080eb00e00c8800c3
:101310000080fa00000006000600fa00200798008e
:1013200010002000000f7800ae009000007d20002b
:10133000808f500002003600007d200020079800ba
:101340002e0090004500dd00100798009621ef0068
:10135000a1e1a80006003700b10c80001e0090003b
:10136000808f5000020036000000eb00000f780074
:101370001e0078000000e000f7ff3a00a1e1a9009c
:101380000080fa00000006000600fa00200798001e
:1013900010002000000f7800ae00900011079800a8
:1013a0009621ef00a1e1a80006003700b10c8000f3
:1013b0001e009000808f5000020036000000eb00fd
:1013c000000f78001e0078000000e000f7ff3a00f0
:0c13d000a1e1a9000080fa000000060066
:020000040000fa
:020000040005f5
:045e0000ffff0000a0
:020000040000fa
:020000040005f5
:045e3000f8ffff0078
:020000040000fa
:020000040005f5
:045e380083ffff00e5
:020000040000fa
:020000040005f5
:045e40009fffff00c1
:020000040000fa
:020000040005f5
:045e4800ffffff0059
:020000040000fa
:020000040005f5
:045e5000dcffff0074
:020000040000fa
:020000040005f5
:045e5800ffffff0049
:00000001FF
